{
  "contractName": "Land",
  "abi": [
    {
      "inputs": [],
      "stateMutability": "nonpayable",
      "type": "constructor"
    },
    {
      "inputs": [
        {
          "internalType": "address",
          "name": "",
          "type": "address"
        }
      ],
      "name": "InspectorMapping",
      "outputs": [
        {
          "internalType": "uint256",
          "name": "id",
          "type": "uint256"
        },
        {
          "internalType": "address",
          "name": "_addr",
          "type": "address"
        },
        {
          "internalType": "string",
          "name": "name",
          "type": "string"
        },
        {
          "internalType": "uint256",
          "name": "age",
          "type": "uint256"
        },
        {
          "internalType": "string",
          "name": "designation",
          "type": "string"
        },
        {
          "internalType": "string",
          "name": "city",
          "type": "string"
        }
      ],
      "stateMutability": "view",
      "type": "function",
      "constant": true
    },
    {
      "inputs": [
        {
          "internalType": "uint256",
          "name": "",
          "type": "uint256"
        }
      ],
      "name": "LandRequestMapping",
      "outputs": [
        {
          "internalType": "uint256",
          "name": "reqId",
          "type": "uint256"
        },
        {
          "internalType": "address payable",
          "name": "sellerId",
          "type": "address"
        },
        {
          "internalType": "address payable",
          "name": "buyerId",
          "type": "address"
        },
        {
          "internalType": "uint256",
          "name": "landId",
          "type": "uint256"
        },
        {
          "internalType": "enum Land.reqStatus",
          "name": "requestStatus",
          "type": "uint8"
        },
        {
          "internalType": "bool",
          "name": "isPaymentDone",
          "type": "bool"
        }
      ],
      "stateMutability": "view",
      "type": "function",
      "constant": true
    },
    {
      "inputs": [
        {
          "internalType": "address",
          "name": "",
          "type": "address"
        }
      ],
      "name": "UserMapping",
      "outputs": [
        {
          "internalType": "address",
          "name": "id",
          "type": "address"
        },
        {
          "internalType": "string",
          "name": "name",
          "type": "string"
        },
        {
          "internalType": "uint256",
          "name": "age",
          "type": "uint256"
        },
        {
          "internalType": "string",
          "name": "city",
          "type": "string"
        },
        {
          "internalType": "string",
          "name": "aadharNumber",
          "type": "string"
        },
        {
          "internalType": "string",
          "name": "panNumber",
          "type": "string"
        },
        {
          "internalType": "string",
          "name": "document",
          "type": "string"
        },
        {
          "internalType": "string",
          "name": "email",
          "type": "string"
        }
      ],
      "stateMutability": "view",
      "type": "function",
      "constant": true
    },
    {
      "inputs": [],
      "name": "documentId",
      "outputs": [
        {
          "internalType": "uint256",
          "name": "",
          "type": "uint256"
        }
      ],
      "stateMutability": "view",
      "type": "function",
      "constant": true
    },
    {
      "inputs": [
        {
          "internalType": "uint256",
          "name": "",
          "type": "uint256"
        }
      ],
      "name": "lands",
      "outputs": [
        {
          "internalType": "uint256",
          "name": "id",
          "type": "uint256"
        },
        {
          "internalType": "uint256",
          "name": "area",
          "type": "uint256"
        },
        {
          "internalType": "string",
          "name": "landAddress",
          "type": "string"
        },
        {
          "internalType": "uint256",
          "name": "landPrice",
          "type": "uint256"
        },
        {
          "internalType": "string",
          "name": "allLatitudeLongitude",
          "type": "string"
        },
        {
          "internalType": "uint256",
          "name": "propertyPID",
          "type": "uint256"
        },
        {
          "internalType": "string",
          "name": "physicalSurveyNumber",
          "type": "string"
        },
        {
          "internalType": "string",
          "name": "document",
          "type": "string"
        },
        {
          "internalType": "bool",
          "name": "isforSell",
          "type": "bool"
        },
        {
          "internalType": "address payable",
          "name": "ownerAddress",
          "type": "address"
        }
      ],
      "stateMutability": "view",
      "type": "function",
      "constant": true
    },
    {
      "inputs": [],
      "name": "landsCount",
      "outputs": [
        {
          "internalType": "uint256",
          "name": "",
          "type": "uint256"
        }
      ],
      "stateMutability": "view",
      "type": "function",
      "constant": true
    },
    {
      "inputs": [],
      "name": "userCount",
      "outputs": [
        {
          "internalType": "uint256",
          "name": "",
          "type": "uint256"
        }
      ],
      "stateMutability": "view",
      "type": "function",
      "constant": true
    },
    {
      "inputs": [
        {
          "internalType": "address",
          "name": "_addr",
          "type": "address"
        }
      ],
      "name": "isContractOwner",
      "outputs": [
        {
          "internalType": "bool",
          "name": "",
          "type": "bool"
        }
      ],
      "stateMutability": "view",
      "type": "function",
      "constant": true
    },
    {
      "inputs": [
        {
          "internalType": "address",
          "name": "_addr",
          "type": "address"
        }
      ],
      "name": "changeContractOwner",
      "outputs": [],
      "stateMutability": "nonpayable",
      "type": "function"
    },
    {
      "inputs": [
        {
          "internalType": "address",
          "name": "_addr",
          "type": "address"
        },
        {
          "internalType": "string",
          "name": "_name",
          "type": "string"
        },
        {
          "internalType": "uint256",
          "name": "_age",
          "type": "uint256"
        },
        {
          "internalType": "string",
          "name": "_designation",
          "type": "string"
        },
        {
          "internalType": "string",
          "name": "_city",
          "type": "string"
        }
      ],
      "name": "addLandInspector",
      "outputs": [
        {
          "internalType": "bool",
          "name": "",
          "type": "bool"
        }
      ],
      "stateMutability": "nonpayable",
      "type": "function"
    },
    {
      "inputs": [],
      "name": "ReturnAllLandIncpectorList",
      "outputs": [
        {
          "internalType": "address[]",
          "name": "",
          "type": "address[]"
        }
      ],
      "stateMutability": "view",
      "type": "function",
      "constant": true
    },
    {
      "inputs": [
        {
          "internalType": "address",
          "name": "_addr",
          "type": "address"
        }
      ],
      "name": "removeLandInspector",
      "outputs": [],
      "stateMutability": "nonpayable",
      "type": "function"
    },
    {
      "inputs": [
        {
          "internalType": "address",
          "name": "_id",
          "type": "address"
        }
      ],
      "name": "isLandInspector",
      "outputs": [
        {
          "internalType": "bool",
          "name": "",
          "type": "bool"
        }
      ],
      "stateMutability": "view",
      "type": "function",
      "constant": true
    },
    {
      "inputs": [
        {
          "internalType": "address",
          "name": "_addr",
          "type": "address"
        }
      ],
      "name": "isUserRegistered",
      "outputs": [
        {
          "internalType": "bool",
          "name": "",
          "type": "bool"
        }
      ],
      "stateMutability": "view",
      "type": "function",
      "constant": true
    },
    {
      "inputs": [
        {
          "internalType": "string",
          "name": "_name",
          "type": "string"
        },
        {
          "internalType": "uint256",
          "name": "_age",
          "type": "uint256"
        },
        {
          "internalType": "string",
          "name": "_city",
          "type": "string"
        },
        {
          "internalType": "string",
          "name": "_aadharNumber",
          "type": "string"
        },
        {
          "internalType": "string",
          "name": "_panNumber",
          "type": "string"
        },
        {
          "internalType": "string",
          "name": "_document",
          "type": "string"
        },
        {
          "internalType": "string",
          "name": "_email",
          "type": "string"
        }
      ],
      "name": "registerUser",
      "outputs": [],
      "stateMutability": "nonpayable",
      "type": "function"
    },
    {
      "inputs": [
        {
          "internalType": "address",
          "name": "_userId",
          "type": "address"
        }
      ],
      "name": "verifyUser",
      "outputs": [],
      "stateMutability": "nonpayable",
      "type": "function"
    },
    {
      "inputs": [
        {
          "internalType": "address",
          "name": "id",
          "type": "address"
        }
      ],
      "name": "isUserVerified",
      "outputs": [
        {
          "internalType": "bool",
          "name": "",
          "type": "bool"
        }
      ],
      "stateMutability": "view",
      "type": "function",
      "constant": true
    },
    {
      "inputs": [],
      "name": "ReturnAllUserList",
      "outputs": [
        {
          "internalType": "address[]",
          "name": "",
          "type": "address[]"
        }
      ],
      "stateMutability": "view",
      "type": "function",
      "constant": true
    },
    {
      "inputs": [
        {
          "internalType": "address",
          "name": "_userId",
          "type": "address"
        }
      ],
      "name": "rejectUser",
      "outputs": [],
      "stateMutability": "nonpayable",
      "type": "function"
    },
    {
      "inputs": [
        {
          "internalType": "uint256",
          "name": "_area",
          "type": "uint256"
        },
        {
          "internalType": "string",
          "name": "_address",
          "type": "string"
        },
        {
          "internalType": "uint256",
          "name": "landPrice",
          "type": "uint256"
        },
        {
          "internalType": "string",
          "name": "_allLatiLongi",
          "type": "string"
        },
        {
          "internalType": "uint256",
          "name": "_propertyPID",
          "type": "uint256"
        },
        {
          "internalType": "string",
          "name": "_surveyNum",
          "type": "string"
        },
        {
          "internalType": "string",
          "name": "_document",
          "type": "string"
        }
      ],
      "name": "addLand",
      "outputs": [],
      "stateMutability": "nonpayable",
      "type": "function"
    },
    {
      "inputs": [],
      "name": "ReturnAllLandList",
      "outputs": [
        {
          "internalType": "uint256[]",
          "name": "",
          "type": "uint256[]"
        }
      ],
      "stateMutability": "view",
      "type": "function",
      "constant": true
    },
    {
      "inputs": [
        {
          "internalType": "uint256",
          "name": "_id",
          "type": "uint256"
        }
      ],
      "name": "verifyLand",
      "outputs": [],
      "stateMutability": "nonpayable",
      "type": "function"
    },
    {
      "inputs": [
        {
          "internalType": "uint256",
          "name": "id",
          "type": "uint256"
        }
      ],
      "name": "isLandVerified",
      "outputs": [
        {
          "internalType": "bool",
          "name": "",
          "type": "bool"
        }
      ],
      "stateMutability": "view",
      "type": "function",
      "constant": true
    },
    {
      "inputs": [
        {
          "internalType": "uint256",
          "name": "_id",
          "type": "uint256"
        }
      ],
      "name": "rejectLand",
      "outputs": [],
      "stateMutability": "nonpayable",
      "type": "function"
    },
    {
      "inputs": [
        {
          "internalType": "address",
          "name": "id",
          "type": "address"
        }
      ],
      "name": "myAllLands",
      "outputs": [
        {
          "internalType": "uint256[]",
          "name": "",
          "type": "uint256[]"
        }
      ],
      "stateMutability": "view",
      "type": "function",
      "constant": true
    },
    {
      "inputs": [
        {
          "internalType": "uint256",
          "name": "id",
          "type": "uint256"
        }
      ],
      "name": "makeItforSell",
      "outputs": [],
      "stateMutability": "nonpayable",
      "type": "function"
    },
    {
      "inputs": [
        {
          "internalType": "uint256",
          "name": "_landId",
          "type": "uint256"
        }
      ],
      "name": "requestforBuy",
      "outputs": [],
      "stateMutability": "nonpayable",
      "type": "function"
    },
    {
      "inputs": [],
      "name": "myReceivedLandRequests",
      "outputs": [
        {
          "internalType": "uint256[]",
          "name": "",
          "type": "uint256[]"
        }
      ],
      "stateMutability": "view",
      "type": "function",
      "constant": true
    },
    {
      "inputs": [],
      "name": "mySentLandRequests",
      "outputs": [
        {
          "internalType": "uint256[]",
          "name": "",
          "type": "uint256[]"
        }
      ],
      "stateMutability": "view",
      "type": "function",
      "constant": true
    },
    {
      "inputs": [
        {
          "internalType": "uint256",
          "name": "_requestId",
          "type": "uint256"
        }
      ],
      "name": "acceptRequest",
      "outputs": [],
      "stateMutability": "nonpayable",
      "type": "function"
    },
    {
      "inputs": [
        {
          "internalType": "uint256",
          "name": "_requestId",
          "type": "uint256"
        }
      ],
      "name": "rejectRequest",
      "outputs": [],
      "stateMutability": "nonpayable",
      "type": "function"
    },
    {
      "inputs": [
        {
          "internalType": "uint256",
          "name": "id",
          "type": "uint256"
        }
      ],
      "name": "requesteStatus",
      "outputs": [
        {
          "internalType": "bool",
          "name": "",
          "type": "bool"
        }
      ],
      "stateMutability": "view",
      "type": "function",
      "constant": true
    },
    {
      "inputs": [
        {
          "internalType": "uint256",
          "name": "id",
          "type": "uint256"
        }
      ],
      "name": "landPrice",
      "outputs": [
        {
          "internalType": "uint256",
          "name": "",
          "type": "uint256"
        }
      ],
      "stateMutability": "view",
      "type": "function",
      "constant": true
    },
    {
      "inputs": [
        {
          "internalType": "uint256",
          "name": "_requestId",
          "type": "uint256"
        }
      ],
      "name": "makePayment",
      "outputs": [],
      "stateMutability": "payable",
      "type": "function",
      "payable": true
    },
    {
      "inputs": [],
      "name": "returnPaymentDoneList",
      "outputs": [
        {
          "internalType": "uint256[]",
          "name": "",
          "type": "uint256[]"
        }
      ],
      "stateMutability": "view",
      "type": "function",
      "constant": true
    },
    {
      "inputs": [
        {
          "internalType": "uint256",
          "name": "_requestId",
          "type": "uint256"
        },
        {
          "internalType": "string",
          "name": "documentUrl",
          "type": "string"
        }
      ],
      "name": "transferOwnership",
      "outputs": [
        {
          "internalType": "bool",
          "name": "",
          "type": "bool"
        }
      ],
      "stateMutability": "nonpayable",
      "type": "function"
    },
    {
      "inputs": [
        {
          "internalType": "address payable",
          "name": "_reveiver",
          "type": "address"
        }
      ],
      "name": "makePaymentTestFun",
      "outputs": [],
      "stateMutability": "payable",
      "type": "function",
      "payable": true
    }
  ],
  "bytecode": "0x608060405234801561001057600080fd5b50336000806101000a81548173ffffffffffffffffffffffffffffffffffffffff021916908373ffffffffffffffffffffffffffffffffffffffff160217905550614a34806100606000396000f3fe60806040526004361061021a5760003560e01c80639c32e3b411610123578063d3b368c0116100ab578063e165af871161006f578063e165af8714611534578063e261f1e51461159b578063edfbe247146117d5578063f9c43bdf14611b9a578063fa02454914611bd55761021a565b8063d3b368c0146110e8578063d61ff68c14611123578063d72ca9ec1461142d578063d8513de41461147c578063de117688146114cd5761021a565b8063c26e11eb116100f2578063c26e11eb14610aba578063c6dcdc3714610af5578063ccfdc19b14610d2b578063d196ebf214610fd6578063d251839b1461107c5761021a565b80639c32e3b4146108d0578063a846fc8f1461093c578063ace417e0146109a8578063b10a30ed14610a0f5761021a565b80634d813120116101a657806364efa0021161017557806364efa002146105f25780636cbf6cf8146107bf5780637517e00f1461081057806378f7c83f14610861578063995a8d961461088c5761021a565b80634d813120146104b65780634dc92885146105075780635114cb5214610558578063553a998d146105865761021a565b80632d7788db116101ed5780632d7788db146103485780633ead67b514610383578063499701b2146103d45780634ba1f098146104405780634c3231af1461047b5761021a565b806307973ccf1461021f578063163f75221461024a5780631c9afd0f146102b157806323393d77146102dc575b600080fd5b34801561022b57600080fd5b50610234611cbd565b6040518082815260200191505060405180910390f35b34801561025657600080fd5b506102996004803603602081101561026d57600080fd5b81019080803573ffffffffffffffffffffffffffffffffffffffff169060200190929190505050611cc3565b60405180821515815260200191505060405180910390f35b3480156102bd57600080fd5b506102c6611d2a565b6040518082815260200191505060405180910390f35b3480156102e857600080fd5b506102f1611d30565b6040518080602001828103825283818151815260200191508051906020019060200280838360005b83811015610334578082015181840152602081019050610319565b505050509050019250505060405180910390f35b34801561035457600080fd5b506103816004803603602081101561036b57600080fd5b8101908080359060200190929190505050611d9a565b005b34801561038f57600080fd5b506103d2600480360360208110156103a657600080fd5b81019080803573ffffffffffffffffffffffffffffffffffffffff169060200190929190505050611e43565b005b3480156103e057600080fd5b506103e9611f47565b6040518080602001828103825283818151815260200191508051906020019060200280838360005b8381101561042c578082015181840152602081019050610411565b505050509050019250505060405180910390f35b34801561044c57600080fd5b506104796004803603602081101561046357600080fd5b8101908080359060200190929190505050611fdc565b005b34801561048757600080fd5b506104b46004803603602081101561049e57600080fd5b8101908080359060200190929190505050612085565b005b3480156104c257600080fd5b50610505600480360360208110156104d957600080fd5b81019080803573ffffffffffffffffffffffffffffffffffffffff169060200190929190505050612120565b005b34801561051357600080fd5b506105566004803603602081101561052a57600080fd5b81019080803573ffffffffffffffffffffffffffffffffffffffff1690602001909291905050506121a4565b005b6105846004803603602081101561056e57600080fd5b8101908080359060200190929190505050612297565b005b34801561059257600080fd5b5061059b612482565b6040518080602001828103825283818151815260200191508051906020019060200280838360005b838110156105de5780820151818401526020810190506105c3565b505050509050019250505060405180910390f35b3480156105fe57600080fd5b506106416004803603602081101561061557600080fd5b81019080803573ffffffffffffffffffffffffffffffffffffffff169060200190929190505050612522565b604051808781526020018673ffffffffffffffffffffffffffffffffffffffff168152602001806020018581526020018060200180602001848103845288818151815260200191508051906020019080838360005b838110156106b1578082015181840152602081019050610696565b50505050905090810190601f1680156106de5780820380516001836020036101000a031916815260200191505b50848103835286818151815260200191508051906020019080838360005b838110156107175780820151818401526020810190506106fc565b50505050905090810190601f1680156107445780820380516001836020036101000a031916815260200191505b50848103825285818151815260200191508051906020019080838360005b8381101561077d578082015181840152602081019050610762565b50505050905090810190601f1680156107aa5780820380516001836020036101000a031916815260200191505b50995050505050505050505060405180910390f35b3480156107cb57600080fd5b506107f8600480360360208110156107e257600080fd5b8101908080359060200190929190505050612746565b60405180821515815260200191505060405180910390f35b34801561081c57600080fd5b5061085f6004803603602081101561083357600080fd5b81019080803573ffffffffffffffffffffffffffffffffffffffff169060200190929190505050612787565b005b34801561086d57600080fd5b50610876612b20565b6040518082815260200191505060405180910390f35b6108ce600480360360208110156108a257600080fd5b81019080803573ffffffffffffffffffffffffffffffffffffffff169060200190929190505050612b26565b005b3480156108dc57600080fd5b506108e5612b70565b6040518080602001828103825283818151815260200191508051906020019060200280838360005b8381101561092857808201518184015260208101905061090d565b505050509050019250505060405180910390f35b34801561094857600080fd5b50610951612c05565b6040518080602001828103825283818151815260200191508051906020019060200280838360005b83811015610994578082015181840152602081019050610979565b505050509050019250505060405180910390f35b3480156109b457600080fd5b506109f7600480360360208110156109cb57600080fd5b81019080803573ffffffffffffffffffffffffffffffffffffffff169060200190929190505050612c6f565b60405180821515815260200191505060405180910390f35b348015610a1b57600080fd5b50610a4860048036036020811015610a3257600080fd5b8101908080359060200190929190505050612cdc565b604051808781526020018673ffffffffffffffffffffffffffffffffffffffff1681526020018573ffffffffffffffffffffffffffffffffffffffff168152602001848152602001836004811115610a9c57fe5b81526020018215158152602001965050505050505060405180910390f35b348015610ac657600080fd5b50610af360048036036020811015610add57600080fd5b8101908080359060200190929190505050612d72565b005b348015610b0157600080fd5b50610d13600480360360a0811015610b1857600080fd5b81019080803573ffffffffffffffffffffffffffffffffffffffff16906020019092919080359060200190640100000000811115610b5557600080fd5b820183602082011115610b6757600080fd5b80359060200191846001830284011164010000000083111715610b8957600080fd5b91908080601f016020809104026020016040519081016040528093929190818152602001838380828437600081840152601f19601f8201169050808301925050505050505091929192908035906020019092919080359060200190640100000000811115610bf657600080fd5b820183602082011115610c0857600080fd5b80359060200191846001830284011164010000000083111715610c2a57600080fd5b91908080601f016020809104026020016040519081016040528093929190818152602001838380828437600081840152601f19601f82011690508083019250505050505050919291929080359060200190640100000000811115610c8d57600080fd5b820183602082011115610c9f57600080fd5b80359060200191846001830284011164010000000083111715610cc157600080fd5b91908080601f016020809104026020016040519081016040528093929190818152602001838380828437600081840152601f19601f820116905080830192505050505050509192919290505050612e12565b60405180821515815260200191505060405180910390f35b348015610d3757600080fd5b50610fd4600480360360e0811015610d4e57600080fd5b810190808035906020019092919080359060200190640100000000811115610d7557600080fd5b820183602082011115610d8757600080fd5b80359060200191846001830284011164010000000083111715610da957600080fd5b91908080601f016020809104026020016040519081016040528093929190818152602001838380828437600081840152601f19601f8201169050808301925050505050505091929192908035906020019092919080359060200190640100000000811115610e1657600080fd5b820183602082011115610e2857600080fd5b80359060200191846001830284011164010000000083111715610e4a57600080fd5b91908080601f016020809104026020016040519081016040528093929190818152602001838380828437600081840152601f19601f8201169050808301925050505050505091929192908035906020019092919080359060200190640100000000811115610eb757600080fd5b820183602082011115610ec957600080fd5b80359060200191846001830284011164010000000083111715610eeb57600080fd5b91908080601f016020809104026020016040519081016040528093929190818152602001838380828437600081840152601f19601f82011690508083019250505050505050919291929080359060200190640100000000811115610f4e57600080fd5b820183602082011115610f6057600080fd5b80359060200191846001830284011164010000000083111715610f8257600080fd5b91908080601f016020809104026020016040519081016040528093929190818152602001838380828437600081840152601f19601f8201169050808301925050505050505091929192905050506130dc565b005b348015610fe257600080fd5b5061102560048036036020811015610ff957600080fd5b81019080803573ffffffffffffffffffffffffffffffffffffffff169060200190929190505050613369565b6040518080602001828103825283818151815260200191508051906020019060200280838360005b8381101561106857808201518184015260208101905061104d565b505050509050019250505060405180910390f35b34801561108857600080fd5b50611091613400565b6040518080602001828103825283818151815260200191508051906020019060200280838360005b838110156110d45780820151818401526020810190506110b9565b505050509050019250505060405180910390f35b3480156110f457600080fd5b506111216004803603602081101561110b57600080fd5b81019080803590602001909291905050506134a0565b005b34801561112f57600080fd5b506111726004803603602081101561114657600080fd5b81019080803573ffffffffffffffffffffffffffffffffffffffff169060200190929190505050613781565b604051808973ffffffffffffffffffffffffffffffffffffffff16815260200180602001888152602001806020018060200180602001806020018060200187810387528e818151815260200191508051906020019080838360005b838110156111e85780820151818401526020810190506111cd565b50505050905090810190601f1680156112155780820380516001836020036101000a031916815260200191505b5087810386528c818151815260200191508051906020019080838360005b8381101561124e578082015181840152602081019050611233565b50505050905090810190601f16801561127b5780820380516001836020036101000a031916815260200191505b5087810385528b818151815260200191508051906020019080838360005b838110156112b4578082015181840152602081019050611299565b50505050905090810190601f1680156112e15780820380516001836020036101000a031916815260200191505b5087810384528a818151815260200191508051906020019080838360005b8381101561131a5780820151818401526020810190506112ff565b50505050905090810190601f1680156113475780820380516001836020036101000a031916815260200191505b50878103835289818151815260200191508051906020019080838360005b83811015611380578082015181840152602081019050611365565b50505050905090810190601f1680156113ad5780820380516001836020036101000a031916815260200191505b50878103825288818151815260200191508051906020019080838360005b838110156113e65780820151818401526020810190506113cb565b50505050905090810190601f1680156114135780820380516001836020036101000a031916815260200191505b509e50505050505050505050505050505060405180910390f35b34801561143957600080fd5b506114666004803603602081101561145057600080fd5b8101908080359060200190929190505050613b79565b6040518082815260200191505060405180910390f35b34801561148857600080fd5b506114b56004803603602081101561149f57600080fd5b8101908080359060200190929190505050613b99565b60405180821515815260200191505060405180910390f35b3480156114d957600080fd5b5061151c600480360360208110156114f057600080fd5b81019080803573ffffffffffffffffffffffffffffffffffffffff169060200190929190505050613bc6565b60405180821515815260200191505060405180910390f35b34801561154057600080fd5b506115836004803603602081101561155757600080fd5b81019080803573ffffffffffffffffffffffffffffffffffffffff169060200190929190505050613c30565b60405180821515815260200191505060405180910390f35b3480156115a757600080fd5b506115d4600480360360208110156115be57600080fd5b8101908080359060200190929190505050613c97565b604051808b81526020018a81526020018060200189815260200180602001888152602001806020018060200187151581526020018673ffffffffffffffffffffffffffffffffffffffff16815260200185810385528d818151815260200191508051906020019080838360005b8381101561165c578082015181840152602081019050611641565b50505050905090810190601f1680156116895780820380516001836020036101000a031916815260200191505b5085810384528b818151815260200191508051906020019080838360005b838110156116c25780820151818401526020810190506116a7565b50505050905090810190601f1680156116ef5780820380516001836020036101000a031916815260200191505b50858103835289818151815260200191508051906020019080838360005b8381101561172857808201518184015260208101905061170d565b50505050905090810190601f1680156117555780820380516001836020036101000a031916815260200191505b50858103825288818151815260200191508051906020019080838360005b8381101561178e578082015181840152602081019050611773565b50505050905090810190601f1680156117bb5780820380516001836020036101000a031916815260200191505b509e50505050505050505050505050505060405180910390f35b3480156117e157600080fd5b50611b98600480360360e08110156117f857600080fd5b810190808035906020019064010000000081111561181557600080fd5b82018360208201111561182757600080fd5b8035906020019184600183028401116401000000008311171561184957600080fd5b91908080601f016020809104026020016040519081016040528093929190818152602001838380828437600081840152601f19601f82011690508083019250505050505050919291929080359060200190929190803590602001906401000000008111156118b657600080fd5b8201836020820111156118c857600080fd5b803590602001918460018302840111640100000000831117156118ea57600080fd5b91908080601f016020809104026020016040519081016040528093929190818152602001838380828437600081840152601f19601f8201169050808301925050505050505091929192908035906020019064010000000081111561194d57600080fd5b82018360208201111561195f57600080fd5b8035906020019184600183028401116401000000008311171561198157600080fd5b91908080601f016020809104026020016040519081016040528093929190818152602001838380828437600081840152601f19601f820116905080830192505050505050509192919290803590602001906401000000008111156119e457600080fd5b8201836020820111156119f657600080fd5b80359060200191846001830284011164010000000083111715611a1857600080fd5b91908080601f016020809104026020016040519081016040528093929190818152602001838380828437600081840152601f19601f82011690508083019250505050505050919291929080359060200190640100000000811115611a7b57600080fd5b820183602082011115611a8d57600080fd5b80359060200191846001830284011164010000000083111715611aaf57600080fd5b91908080601f016020809104026020016040519081016040528093929190818152602001838380828437600081840152601f19601f82011690508083019250505050505050919291929080359060200190640100000000811115611b1257600080fd5b820183602082011115611b2457600080fd5b80359060200191846001830284011164010000000083111715611b4657600080fd5b91908080601f016020809104026020016040519081016040528093929190818152602001838380828437600081840152601f19601f820116905080830192505050505050509192919290505050613f78565b005b348015611ba657600080fd5b50611bd360048036036020811015611bbd57600080fd5b81019080803590602001909291905050506142d9565b005b348015611be157600080fd5b50611ca560048036036040811015611bf857600080fd5b810190808035906020019092919080359060200190640100000000811115611c1f57600080fd5b820183602082011115611c3157600080fd5b80359060200191846001830284011164010000000083111715611c5357600080fd5b91908080601f016020809104026020016040519081016040528093929190818152602001838380828437600081840152601f19601f820116905080830192505050505050509192919290505050614331565b60405180821515815260200191505060405180910390f35b60025481565b6000600c60008373ffffffffffffffffffffffffffffffffffffffff1673ffffffffffffffffffffffffffffffffffffffff16815260200190815260200160002060009054906101000a900460ff1615611d205760019050611d25565b600090505b919050565b60035481565b60606012600060018152602001908152602001600020805480602002602001604051908101604052809291908181526020018280548015611d9057602002820191906000526020600020905b815481526020019060010190808311611d7c575b5050505050905090565b3373ffffffffffffffffffffffffffffffffffffffff16600f600083815260200190815260200160002060010160009054906101000a900473ffffffffffffffffffffffffffffffffffffffff1673ffffffffffffffffffffffffffffffffffffffff1614611e0857600080fd5b6002600f600083815260200190815260200160002060040160006101000a81548160ff02191690836004811115611e3b57fe5b021790555050565b60008054906101000a900473ffffffffffffffffffffffffffffffffffffffff1673ffffffffffffffffffffffffffffffffffffffff163373ffffffffffffffffffffffffffffffffffffffff1614611f04576040517f08c379a00000000000000000000000000000000000000000000000000000000081526004018080602001828103825260198152602001807f796f7520617265206e6f7420636f6e74726163744f776e65720000000000000081525060200191505060405180910390fd5b806000806101000a81548173ffffffffffffffffffffffffffffffffffffffff021916908373ffffffffffffffffffffffffffffffffffffffff16021790555050565b6060601060003373ffffffffffffffffffffffffffffffffffffffff1673ffffffffffffffffffffffffffffffffffffffff168152602001908152602001600020805480602002602001604051908101604052809291908181526020018280548015611fd257602002820191906000526020600020905b815481526020019060010190808311611fbe575b5050505050905090565b3373ffffffffffffffffffffffffffffffffffffffff16600f600083815260200190815260200160002060010160009054906101000a900473ffffffffffffffffffffffffffffffffffffffff1673ffffffffffffffffffffffffffffffffffffffff161461204a57600080fd5b6001600f600083815260200190815260200160002060040160006101000a81548160ff0219169083600481111561207d57fe5b021790555050565b61208e33613c30565b61209757600080fd5b6001600e60008381526020019081526020016000206009016000600281106120bb57fe5b602091828204019190066101000a81548160ff0219169083151502179055506001600e60008381526020019081526020016000206009016001600281106120fe57fe5b602091828204019190066101000a81548160ff02191690831515021790555050565b61212933613c30565b61213257600080fd5b6001600960008373ffffffffffffffffffffffffffffffffffffffff1673ffffffffffffffffffffffffffffffffffffffff16815260200190815260200160002060080160006002811061218257fe5b602091828204019190066101000a81548160ff02191690831515021790555050565b6121ad33613c30565b6121b657600080fd5b6001600960008373ffffffffffffffffffffffffffffffffffffffff1673ffffffffffffffffffffffffffffffffffffffff16815260200190815260200160002060080160006002811061220657fe5b602091828204019190066101000a81548160ff0219169083151502179055506001600960008373ffffffffffffffffffffffffffffffffffffffff1673ffffffffffffffffffffffffffffffffffffffff16815260200190815260200160002060080160016002811061227557fe5b602091828204019190066101000a81548160ff02191690831515021790555050565b3373ffffffffffffffffffffffffffffffffffffffff16600f600083815260200190815260200160002060020160009054906101000a900473ffffffffffffffffffffffffffffffffffffffff1673ffffffffffffffffffffffffffffffffffffffff1614801561234157506001600481111561231057fe5b600f600083815260200190815260200160002060040160009054906101000a900460ff16600481111561233f57fe5b145b61234a57600080fd5b6003600f600083815260200190815260200160002060040160006101000a81548160ff0219169083600481111561237d57fe5b0217905550600e6000600f600084815260200190815260200160002060030154815260200190815260200160002060080160019054906101000a900473ffffffffffffffffffffffffffffffffffffffff1673ffffffffffffffffffffffffffffffffffffffff166108fc349081150290604051600060405180830381858888f19350505050158015612414573d6000803e3d6000fd5b506001600f600083815260200190815260200160002060040160016101000a81548160ff021916908315150217905550601360006001815260200190815260200160002081908060018154018082558091505060019003906000526020600020016000909190919091505550565b6060600b60006001815260200190815260200160002080548060200260200160405190810160405280929190818152602001828054801561251857602002820191906000526020600020905b8160009054906101000a900473ffffffffffffffffffffffffffffffffffffffff1673ffffffffffffffffffffffffffffffffffffffff16815260200190600101908083116124ce575b5050505050905090565b60066020528060005260406000206000915090508060000154908060010160009054906101000a900473ffffffffffffffffffffffffffffffffffffffff1690806002018054600181600116156101000203166002900480601f0160208091040260200160405190810160405280929190818152602001828054600181600116156101000203166002900480156125fa5780601f106125cf576101008083540402835291602001916125fa565b820191906000526020600020905b8154815290600101906020018083116125dd57829003601f168201915b505050505090806003015490806004018054600181600116156101000203166002900480601f01602080910402602001604051908101604052809291908181526020018280546001816001161561010002031660029004801561269e5780601f106126735761010080835404028352916020019161269e565b820191906000526020600020905b81548152906001019060200180831161268157829003601f168201915b505050505090806005018054600181600116156101000203166002900480601f01602080910402602001604051908101604052809291908181526020018280546001816001161561010002031660029004801561273c5780601f106127115761010080835404028352916020019161273c565b820191906000526020600020905b81548152906001019060200180831161271f57829003601f168201915b5050505050905086565b6000600e600083815260200190815260200160002060090160006002811061276a57fe5b602091828204019190069054906101000a900460ff169050919050565b60008054906101000a900473ffffffffffffffffffffffffffffffffffffffff1673ffffffffffffffffffffffffffffffffffffffff163373ffffffffffffffffffffffffffffffffffffffff1614612848576040517f08c379a00000000000000000000000000000000000000000000000000000000081526004018080602001828103825260198152602001807f596f7520617265206e6f7420636f6e74726163744f776e65720000000000000081525060200191505060405180910390fd5b600860008273ffffffffffffffffffffffffffffffffffffffff1673ffffffffffffffffffffffffffffffffffffffff16815260200190815260200160002060009054906101000a900460ff16612907576040517f08c379a00000000000000000000000000000000000000000000000000000000081526004018080602001828103825260188152602001807f4c616e6420496e73706563746f72206e6f7420666f756e64000000000000000081525060200191505060405180910390fd5b6000600860008373ffffffffffffffffffffffffffffffffffffffff1673ffffffffffffffffffffffffffffffffffffffff16815260200190815260200160002060006101000a81548160ff0219169083151502179055506000600760006001815260200190815260200160002080549050905060005b81811015612b1b578273ffffffffffffffffffffffffffffffffffffffff16600760006001815260200190815260200160002082815481106129bc57fe5b9060005260206000200160009054906101000a900473ffffffffffffffffffffffffffffffffffffffff1673ffffffffffffffffffffffffffffffffffffffff161415612b0e5760076000600181526020019081526020016000206001830381548110612a2557fe5b9060005260206000200160009054906101000a900473ffffffffffffffffffffffffffffffffffffffff1660076000600181526020019081526020016000208281548110612a6f57fe5b9060005260206000200160006101000a81548173ffffffffffffffffffffffffffffffffffffffff021916908373ffffffffffffffffffffffffffffffffffffffff1602179055506007600060018152602001908152602001600020805480612ad457fe5b6001900381819060005260206000200160006101000a81549073ffffffffffffffffffffffffffffffffffffffff02191690559055612b1b565b808060010191505061297e565b505050565b60045481565b8073ffffffffffffffffffffffffffffffffffffffff166108fc349081150290604051600060405180830381858888f19350505050158015612b6c573d6000803e3d6000fd5b5050565b6060601160003373ffffffffffffffffffffffffffffffffffffffff1673ffffffffffffffffffffffffffffffffffffffff168152602001908152602001600020805480602002602001604051908101604052809291908181526020018280548015612bfb57602002820191906000526020600020905b815481526020019060010190808311612be7575b5050505050905090565b60606013600060018152602001908152602001600020805480602002602001604051908101604052809291908181526020018280548015612c6557602002820191906000526020600020905b815481526020019060010190808311612c51575b5050505050905090565b6000600960008373ffffffffffffffffffffffffffffffffffffffff1673ffffffffffffffffffffffffffffffffffffffff168152602001908152602001600020600801600060028110612cbf57fe5b602091828204019190069054906101000a900460ff169050919050565b600f6020528060005260406000206000915090508060000154908060010160009054906101000a900473ffffffffffffffffffffffffffffffffffffffff16908060020160009054906101000a900473ffffffffffffffffffffffffffffffffffffffff16908060030154908060040160009054906101000a900460ff16908060040160019054906101000a900460ff16905086565b3373ffffffffffffffffffffffffffffffffffffffff16600e600083815260200190815260200160002060080160019054906101000a900473ffffffffffffffffffffffffffffffffffffffff1673ffffffffffffffffffffffffffffffffffffffff1614612de057600080fd5b6001600e600083815260200190815260200160002060080160006101000a81548160ff02191690831515021790555050565b60003373ffffffffffffffffffffffffffffffffffffffff1660008054906101000a900473ffffffffffffffffffffffffffffffffffffffff1673ffffffffffffffffffffffffffffffffffffffff1614612e7057600090506130d3565b3373ffffffffffffffffffffffffffffffffffffffff1660008054906101000a900473ffffffffffffffffffffffffffffffffffffffff1673ffffffffffffffffffffffffffffffffffffffff1614612ec857600080fd5b6001600860008873ffffffffffffffffffffffffffffffffffffffff1673ffffffffffffffffffffffffffffffffffffffff16815260200190815260200160002060006101000a81548160ff0219169083151502179055506007600060018152602001908152602001600020869080600181540180825580915050600190039060005260206000200160009091909190916101000a81548173ffffffffffffffffffffffffffffffffffffffff021916908373ffffffffffffffffffffffffffffffffffffffff1602179055506040518060c0016040528060015481526020018773ffffffffffffffffffffffffffffffffffffffff16815260200186815260200185815260200184815260200183815250600660008873ffffffffffffffffffffffffffffffffffffffff1673ffffffffffffffffffffffffffffffffffffffff1681526020019081526020016000206000820151816000015560208201518160010160006101000a81548173ffffffffffffffffffffffffffffffffffffffff021916908373ffffffffffffffffffffffffffffffffffffffff16021790555060408201518160020190805190602001906130869291906148a0565b506060820151816003015560808201518160040190805190602001906130ad9291906148a0565b5060a08201518160050190805190602001906130ca9291906148a0565b50905050600190505b95945050505050565b6130e533612c6f565b6130ee57600080fd5b60036000815480929190600101919050555060405180610160016040528060035481526020018881526020018781526020018681526020018581526020018481526020018381526020018281526020016000151581526020013373ffffffffffffffffffffffffffffffffffffffff16815260200160405180604001604052806000151515158152602001600015151515815250815250600e60006003548152602001908152602001600020600082015181600001556020820151816001015560408201518160020190805190602001906131ca9291906148a0565b506060820151816003015560808201518160040190805190602001906131f19291906148a0565b5060a0820151816005015560c08201518160060190805190602001906132189291906148a0565b5060e08201518160070190805190602001906132359291906148a0565b506101008201518160080160006101000a81548160ff0219169083151502179055506101208201518160080160016101000a81548173ffffffffffffffffffffffffffffffffffffffff021916908373ffffffffffffffffffffffffffffffffffffffff160217905550610140820151816009019060026132b7929190614920565b50905050600d60003373ffffffffffffffffffffffffffffffffffffffff1673ffffffffffffffffffffffffffffffffffffffff16815260200190815260200160002060035490806001815401808255809150506001900390600052602060002001600090919091909150556012600060018152602001908152602001600020600354908060018154018082558091505060019003906000526020600020016000909190919091505550505050505050565b6060600d60008373ffffffffffffffffffffffffffffffffffffffff1673ffffffffffffffffffffffffffffffffffffffff1681526020019081526020016000208054806020026020016040519081016040528092919081815260200182805480156133f457602002820191906000526020600020905b8154815260200190600101908083116133e0575b50505050509050919050565b6060600760006001815260200190815260200160002080548060200260200160405190810160405280929190818152602001828054801561349657602002820191906000526020600020905b8160009054906101000a900473ffffffffffffffffffffffffffffffffffffffff1673ffffffffffffffffffffffffffffffffffffffff168152602001906001019080831161344c575b5050505050905090565b6134a933612c6f565b80156134ba57506134b981612746565b5b6134c357600080fd5b6005600081548092919060010191905055506040518060c001604052806005548152602001600e600084815260200190815260200160002060080160019054906101000a900473ffffffffffffffffffffffffffffffffffffffff1673ffffffffffffffffffffffffffffffffffffffff1681526020013373ffffffffffffffffffffffffffffffffffffffff1681526020018281526020016000600481111561356957fe5b815260200160001515815250600f600060055481526020019081526020016000206000820151816000015560208201518160010160006101000a81548173ffffffffffffffffffffffffffffffffffffffff021916908373ffffffffffffffffffffffffffffffffffffffff16021790555060408201518160020160006101000a81548173ffffffffffffffffffffffffffffffffffffffff021916908373ffffffffffffffffffffffffffffffffffffffff1602179055506060820151816003015560808201518160040160006101000a81548160ff0219169083600481111561365057fe5b021790555060a08201518160040160016101000a81548160ff02191690831515021790555090505060106000600e600084815260200190815260200160002060080160019054906101000a900473ffffffffffffffffffffffffffffffffffffffff1673ffffffffffffffffffffffffffffffffffffffff1673ffffffffffffffffffffffffffffffffffffffff1681526020019081526020016000206005549080600181540180825580915050600190039060005260206000200160009091909190915055601160003373ffffffffffffffffffffffffffffffffffffffff1673ffffffffffffffffffffffffffffffffffffffff168152602001908152602001600020600554908060018154018082558091505060019003906000526020600020016000909190919091505550565b60096020528060005260406000206000915090508060000160009054906101000a900473ffffffffffffffffffffffffffffffffffffffff1690806001018054600181600116156101000203166002900480601f0160208091040260200160405190810160405280929190818152602001828054600181600116156101000203166002900480156138535780601f1061382857610100808354040283529160200191613853565b820191906000526020600020905b81548152906001019060200180831161383657829003601f168201915b505050505090806002015490806003018054600181600116156101000203166002900480601f0160208091040260200160405190810160405280929190818152602001828054600181600116156101000203166002900480156138f75780601f106138cc576101008083540402835291602001916138f7565b820191906000526020600020905b8154815290600101906020018083116138da57829003601f168201915b505050505090806004018054600181600116156101000203166002900480601f0160208091040260200160405190810160405280929190818152602001828054600181600116156101000203166002900480156139955780601f1061396a57610100808354040283529160200191613995565b820191906000526020600020905b81548152906001019060200180831161397857829003601f168201915b505050505090806005018054600181600116156101000203166002900480601f016020809104026020016040519081016040528092919081815260200182805460018160011615610100020316600290048015613a335780601f10613a0857610100808354040283529160200191613a33565b820191906000526020600020905b815481529060010190602001808311613a1657829003601f168201915b505050505090806006018054600181600116156101000203166002900480601f016020809104026020016040519081016040528092919081815260200182805460018160011615610100020316600290048015613ad15780601f10613aa657610100808354040283529160200191613ad1565b820191906000526020600020905b815481529060010190602001808311613ab457829003601f168201915b505050505090806007018054600181600116156101000203166002900480601f016020809104026020016040519081016040528092919081815260200182805460018160011615610100020316600290048015613b6f5780601f10613b4457610100808354040283529160200191613b6f565b820191906000526020600020905b815481529060010190602001808311613b5257829003601f168201915b5050505050905088565b6000600e6000838152602001908152602001600020600301549050919050565b6000600f600083815260200190815260200160002060040160019054906101000a900460ff169050919050565b60008060009054906101000a900473ffffffffffffffffffffffffffffffffffffffff1673ffffffffffffffffffffffffffffffffffffffff168273ffffffffffffffffffffffffffffffffffffffff161415613c265760019050613c2b565b600090505b919050565b6000600860008373ffffffffffffffffffffffffffffffffffffffff1673ffffffffffffffffffffffffffffffffffffffff16815260200190815260200160002060009054906101000a900460ff1615613c8d5760019050613c92565b600090505b919050565b600e602052806000526040600020600091509050806000015490806001015490806002018054600181600116156101000203166002900480601f016020809104026020016040519081016040528092919081815260200182805460018160011615610100020316600290048015613d4f5780601f10613d2457610100808354040283529160200191613d4f565b820191906000526020600020905b815481529060010190602001808311613d3257829003601f168201915b505050505090806003015490806004018054600181600116156101000203166002900480601f016020809104026020016040519081016040528092919081815260200182805460018160011615610100020316600290048015613df35780601f10613dc857610100808354040283529160200191613df3565b820191906000526020600020905b815481529060010190602001808311613dd657829003601f168201915b505050505090806005015490806006018054600181600116156101000203166002900480601f016020809104026020016040519081016040528092919081815260200182805460018160011615610100020316600290048015613e975780601f10613e6c57610100808354040283529160200191613e97565b820191906000526020600020905b815481529060010190602001808311613e7a57829003601f168201915b505050505090806007018054600181600116156101000203166002900480601f016020809104026020016040519081016040528092919081815260200182805460018160011615610100020316600290048015613f355780601f10613f0a57610100808354040283529160200191613f35565b820191906000526020600020905b815481529060010190602001808311613f1857829003601f168201915b5050505050908060080160009054906101000a900460ff16908060080160019054906101000a900473ffffffffffffffffffffffffffffffffffffffff1690508a565b600c60003373ffffffffffffffffffffffffffffffffffffffff1673ffffffffffffffffffffffffffffffffffffffff16815260200190815260200160002060009054906101000a900460ff1615613fcf57600080fd5b6001600c60003373ffffffffffffffffffffffffffffffffffffffff1673ffffffffffffffffffffffffffffffffffffffff16815260200190815260200160002060006101000a81548160ff021916908315150217905550600260008154809291906001019190505550600b600060018152602001908152602001600020339080600181540180825580915050600190039060005260206000200160009091909190916101000a81548173ffffffffffffffffffffffffffffffffffffffff021916908373ffffffffffffffffffffffffffffffffffffffff16021790555033600a6000600254815260200190815260200160002060006101000a81548173ffffffffffffffffffffffffffffffffffffffff021916908373ffffffffffffffffffffffffffffffffffffffff1602179055506040518061012001604052803373ffffffffffffffffffffffffffffffffffffffff16815260200188815260200187815260200186815260200185815260200184815260200183815260200182815260200160405180604001604052806000151515158152602001600015151515815250815250600960003373ffffffffffffffffffffffffffffffffffffffff1673ffffffffffffffffffffffffffffffffffffffff16815260200190815260200160002060008201518160000160006101000a81548173ffffffffffffffffffffffffffffffffffffffff021916908373ffffffffffffffffffffffffffffffffffffffff16021790555060208201518160010190805190602001906142189291906148a0565b5060408201518160020155606082015181600301908051906020019061423f9291906148a0565b50608082015181600401908051906020019061425c9291906148a0565b5060a08201518160050190805190602001906142799291906148a0565b5060c08201518160060190805190602001906142969291906148a0565b5060e08201518160070190805190602001906142b39291906148a0565b50610100820151816008019060026142cc929190614920565b5090505050505050505050565b6142e233613c30565b6142eb57600080fd5b6001600e600083815260200190815260200160002060090160006002811061430f57fe5b602091828204019190066101000a81548160ff02191690831515021790555050565b600061433c33613c30565b61434557600080fd5b60001515600f600085815260200190815260200160002060040160019054906101000a900460ff161515141561437e576000905061489a565b6004600081548092919060010191905055506004600f600085815260200190815260200160002060040160006101000a81548160ff021916908360048111156143c357fe5b0217905550600d6000600f600086815260200190815260200160002060020160009054906101000a900473ffffffffffffffffffffffffffffffffffffffff1673ffffffffffffffffffffffffffffffffffffffff1673ffffffffffffffffffffffffffffffffffffffff168152602001908152602001600020600f60008581526020019081526020016000206003015490806001815401808255809150506001900390600052602060002001600090919091909150556000600d6000600f600087815260200190815260200160002060010160009054906101000a900473ffffffffffffffffffffffffffffffffffffffff1673ffffffffffffffffffffffffffffffffffffffff1673ffffffffffffffffffffffffffffffffffffffff16815260200190815260200160002080549050905060005b8181101561476c57600f600086815260200190815260200160002060030154600d6000600f600089815260200190815260200160002060010160009054906101000a900473ffffffffffffffffffffffffffffffffffffffff1673ffffffffffffffffffffffffffffffffffffffff1673ffffffffffffffffffffffffffffffffffffffff168152602001908152602001600020828154811061459957fe5b9060005260206000200154141561475f57600d6000600f600088815260200190815260200160002060010160009054906101000a900473ffffffffffffffffffffffffffffffffffffffff1673ffffffffffffffffffffffffffffffffffffffff1673ffffffffffffffffffffffffffffffffffffffff168152602001908152602001600020600183038154811061462d57fe5b9060005260206000200154600d6000600f600089815260200190815260200160002060010160009054906101000a900473ffffffffffffffffffffffffffffffffffffffff1673ffffffffffffffffffffffffffffffffffffffff1673ffffffffffffffffffffffffffffffffffffffff16815260200190815260200160002082815481106146b857fe5b9060005260206000200181905550600d6000600f600088815260200190815260200160002060010160009054906101000a900473ffffffffffffffffffffffffffffffffffffffff1673ffffffffffffffffffffffffffffffffffffffff1673ffffffffffffffffffffffffffffffffffffffff16815260200190815260200160002080548061474457fe5b6001900381819060005260206000200160009055905561476c565b80806001019150506144fa565b5082600e6000600f600088815260200190815260200160002060030154815260200190815260200160002060070190805190602001906147ad9291906148a0565b506000600e6000600f600088815260200190815260200160002060030154815260200190815260200160002060080160006101000a81548160ff021916908315150217905550600f600085815260200190815260200160002060020160009054906101000a900473ffffffffffffffffffffffffffffffffffffffff16600e6000600f600088815260200190815260200160002060030154815260200190815260200160002060080160016101000a81548173ffffffffffffffffffffffffffffffffffffffff021916908373ffffffffffffffffffffffffffffffffffffffff16021790555060019150505b92915050565b828054600181600116156101000203166002900490600052602060002090601f016020900481019282601f106148e157805160ff191683800117855561490f565b8280016001018555821561490f579182015b8281111561490e5782518255916020019190600101906148f3565b5b50905061491c91906149b9565b5090565b826002601f016020900481019282156149a85791602002820160005b8382111561497957835183826101000a81548160ff021916908315150217905550926020019260010160208160000104928301926001030261493c565b80156149a65782816101000a81549060ff0219169055600101602081600001049283019260010302614979565b505b5090506149b591906149d6565b5090565b5b808211156149d25760008160009055506001016149ba565b5090565b5b808211156149fa57600081816101000a81549060ff0219169055506001016149d7565b509056fea264697066735822122097ff50e991b2d52d1eb6ec7c66fcb712f71478aeeba6bf9abf9aa575b58ba6f764736f6c634300060c0033",
  "immutableReferences": {},
  "source": "pragma solidity ^0.6.0;\r\n\r\ncontract Land {\r\n    address contractOwner;\r\n\r\n    constructor() public{\r\n        contractOwner = msg.sender;\r\n    }\r\n\r\n    struct Landreg {\r\n        uint id;\r\n        uint area;\r\n        string landAddress;\r\n        uint landPrice;\r\n        string allLatitudeLongitude;\r\n        //string allLongitude;\r\n        uint propertyPID;\r\n        string physicalSurveyNumber;\r\n        string document;\r\n        bool isforSell;\r\n        address payable ownerAddress;\r\n        bool[2] isLandVerified;\r\n        // bool isRejected;\r\n    }\r\n\r\n    struct User{\r\n        address id;\r\n        string name;\r\n        uint age;\r\n        string city;\r\n        string aadharNumber;\r\n        string panNumber;\r\n        string document;\r\n        string email;\r\n        bool[2] isUserVerified;\r\n        // bool isRejected;\r\n    }\r\n\r\n    struct LandInspector {\r\n        uint id;\r\n        address _addr;\r\n        string name;\r\n        uint age;\r\n        string designation;\r\n        string city;\r\n    }\r\n\r\n    struct LandRequest{\r\n        uint reqId;\r\n        address payable sellerId;\r\n        address payable buyerId;\r\n        uint landId;\r\n        reqStatus requestStatus;\r\n        bool isPaymentDone;\r\n    }\r\n    enum reqStatus {requested,accepted,rejected,paymentdone,commpleted}\r\n\r\n\r\n    uint inspectorsCount;\r\n    uint public userCount;\r\n    uint public landsCount;\r\n    uint public documentId;\r\n    uint requestCount;\r\n\r\n\r\n    mapping(address => LandInspector) public InspectorMapping;\r\n    mapping(uint => address[]) allLandInspectorList;\r\n    mapping(address => bool)  RegisteredInspectorMapping;\r\n    mapping(address => User) public UserMapping;\r\n    mapping(uint => address)  AllUsers;\r\n    mapping(uint => address[])  allUsersList;\r\n    mapping(address => bool)  RegisteredUserMapping;\r\n    mapping(address => uint[])  MyLands;\r\n    mapping(uint => Landreg) public lands;\r\n    mapping(uint => LandRequest) public LandRequestMapping;\r\n    mapping(address => uint[])  MyReceivedLandRequest;\r\n    mapping(address => uint[])  MySentLandRequest;\r\n    mapping(uint => uint[])  allLandList;\r\n    mapping(uint => uint[])  paymentDoneList;\r\n\r\n\r\n    function isContractOwner(address _addr) public view returns(bool){\r\n        if(_addr==contractOwner)\r\n            return true;\r\n        else\r\n            return false;\r\n    }\r\n\r\n    function changeContractOwner(address _addr)public {\r\n        require(msg.sender==contractOwner,\"you are not contractOwner\");\r\n\r\n        contractOwner=_addr;\r\n    }\r\n\r\n    //-----------------------------------------------LandInspector-----------------------------------------------\r\n\r\n    function addLandInspector(address _addr,string memory _name, uint _age, string memory _designation,string memory _city) public returns(bool){\r\n        if(contractOwner!=msg.sender)\r\n            return false;\r\n        require(contractOwner==msg.sender);\r\n        RegisteredInspectorMapping[_addr]=true;\r\n        allLandInspectorList[1].push(_addr);\r\n        InspectorMapping[_addr] = LandInspector(inspectorsCount,_addr,_name, _age, _designation,_city);\r\n        return true;\r\n    }\r\n\r\n    function ReturnAllLandIncpectorList() public view returns(address[] memory)\r\n    {\r\n        return allLandInspectorList[1];\r\n    }\r\n\r\n    function removeLandInspector(address _addr) public{\r\n        require(msg.sender==contractOwner,\"You are not contractOwner\");\r\n        require(RegisteredInspectorMapping[_addr],\"Land Inspector not found\");\r\n        RegisteredInspectorMapping[_addr]=false;\r\n\r\n\r\n        uint len=allLandInspectorList[1].length;\r\n        for(uint i=0;i<len;i++)\r\n        {\r\n            if(allLandInspectorList[1][i]==_addr)\r\n            {\r\n                allLandInspectorList[1][i]=allLandInspectorList[1][len-1];\r\n                allLandInspectorList[1].pop();\r\n                break;\r\n            }\r\n        }\r\n    }\r\n\r\n    function isLandInspector(address _id) public view returns (bool) {\r\n        if(RegisteredInspectorMapping[_id]){\r\n            return true;\r\n        }else{\r\n            return false;\r\n        }\r\n    }\r\n\r\n\r\n\r\n    //-----------------------------------------------User-----------------------------------------------\r\n\r\n    function isUserRegistered(address _addr) public view returns(bool)\r\n    {\r\n        if(RegisteredUserMapping[_addr]){\r\n            return true;\r\n        }else{\r\n            return false;\r\n        }\r\n    }\r\n\r\n    function registerUser(string memory _name, uint _age, string memory _city,string memory _aadharNumber, string memory _panNumber, string memory _document, string memory _email\r\n    ) public {\r\n\r\n        require(!RegisteredUserMapping[msg.sender]);\r\n\r\n        RegisteredUserMapping[msg.sender] = true;\r\n        userCount++;\r\n        allUsersList[1].push(msg.sender);\r\n        AllUsers[userCount]=msg.sender;\r\n        UserMapping[msg.sender] = User(msg.sender, _name, _age, _city,_aadharNumber,_panNumber, _document,_email,[false,false]);\r\n        //emit Registration(msg.sender);\r\n    }\r\n\r\n    function verifyUser(address _userId) public{\r\n        require(isLandInspector(msg.sender));\r\n        UserMapping[_userId].isUserVerified[0]=true;\r\n    }\r\n    function isUserVerified(address id) public view returns(bool){\r\n        return UserMapping[id].isUserVerified[0];\r\n    }\r\n    function ReturnAllUserList() public view returns(address[] memory)\r\n    {\r\n        return allUsersList[1];\r\n    }\r\n    function rejectUser(address _userId) public{\r\n        require(isLandInspector(msg.sender));\r\n        UserMapping[_userId].isUserVerified[0]=true;\r\n        UserMapping[_userId].isUserVerified[1]=true;\r\n    }\r\n\r\n\r\n    //-----------------------------------------------Land-----------------------------------------------\r\n    function addLand(uint _area, string memory _address, uint landPrice,string memory _allLatiLongi, uint _propertyPID,string memory _surveyNum, string memory _document) public {\r\n        require(isUserVerified(msg.sender));\r\n        landsCount++;\r\n        lands[landsCount] = Landreg(landsCount, _area, _address, landPrice,_allLatiLongi,_propertyPID, _surveyNum , _document,false,msg.sender,[false,false]);\r\n        MyLands[msg.sender].push(landsCount);\r\n        allLandList[1].push(landsCount);\r\n        // emit AddingLand(landsCount);\r\n    }\r\n\r\n    function ReturnAllLandList() public view returns(uint[] memory)\r\n    {\r\n        return allLandList[1];\r\n    }\r\n\r\n    function verifyLand(uint _id) public{\r\n        require(isLandInspector(msg.sender));\r\n        lands[_id].isLandVerified[0]=true;\r\n    }\r\n    function isLandVerified(uint id) public view returns(bool){\r\n        return lands[id].isLandVerified[0];\r\n    }\r\n    function rejectLand(uint _id) public{\r\n        require(isLandInspector(msg.sender));\r\n        lands[_id].isLandVerified[0]=true;\r\n        lands[_id].isLandVerified[1]=true;\r\n    }\r\n\r\n    function myAllLands(address id) public view returns( uint[] memory){\r\n        return MyLands[id];\r\n    }\r\n\r\n\r\n    function makeItforSell(uint id) public{\r\n        require(lands[id].ownerAddress==msg.sender);\r\n        lands[id].isforSell=true;\r\n    }\r\n\r\n    function requestforBuy(uint _landId) public\r\n    {\r\n        require(isUserVerified(msg.sender) && isLandVerified(_landId));\r\n        requestCount++;\r\n        LandRequestMapping[requestCount]=LandRequest(requestCount,lands[_landId].ownerAddress,msg.sender,_landId,reqStatus.requested,false);\r\n        MyReceivedLandRequest[lands[_landId].ownerAddress].push(requestCount);\r\n        MySentLandRequest[msg.sender].push(requestCount);\r\n    }\r\n\r\n    function myReceivedLandRequests() public view returns(uint[] memory)\r\n    {\r\n        return MyReceivedLandRequest[msg.sender];\r\n    }\r\n    function mySentLandRequests() public view returns(uint[] memory)\r\n    {\r\n        return MySentLandRequest[msg.sender];\r\n    }\r\n    function acceptRequest(uint _requestId) public\r\n    {\r\n        require(LandRequestMapping[_requestId].sellerId==msg.sender);\r\n        LandRequestMapping[_requestId].requestStatus=reqStatus.accepted;\r\n    }\r\n    function rejectRequest(uint _requestId) public\r\n    {\r\n        require(LandRequestMapping[_requestId].sellerId==msg.sender);\r\n        LandRequestMapping[_requestId].requestStatus=reqStatus.rejected;\r\n    }\r\n\r\n    function requesteStatus(uint id) public view returns(bool)\r\n    {\r\n        return LandRequestMapping[id].isPaymentDone;\r\n    }\r\n\r\n    function landPrice(uint id) public view returns(uint)\r\n    {\r\n        return lands[id].landPrice;\r\n    }\r\n    function makePayment(uint _requestId) public payable\r\n    {\r\n        require(LandRequestMapping[_requestId].buyerId==msg.sender && LandRequestMapping[_requestId].requestStatus==reqStatus.accepted);\r\n\r\n        LandRequestMapping[_requestId].requestStatus=reqStatus.paymentdone;\r\n        //LandRequestMapping[_requestId].sellerId.transfer(lands[LandRequestMapping[_requestId].landId].landPrice);\r\n        //lands[LandRequestMapping[_requestId].landId].ownerAddress.transfer(lands[LandRequestMapping[_requestId].landId].landPrice);\r\n        lands[LandRequestMapping[_requestId].landId].ownerAddress.transfer(msg.value);\r\n        LandRequestMapping[_requestId].isPaymentDone=true;\r\n        paymentDoneList[1].push(_requestId);\r\n    }\r\n\r\n    function returnPaymentDoneList() public view returns(uint[] memory)\r\n    {\r\n        return paymentDoneList[1];\r\n    }\r\n\r\n    function transferOwnership(uint _requestId,string memory documentUrl) public returns(bool)\r\n    {\r\n        require(isLandInspector(msg.sender));\r\n        if(LandRequestMapping[_requestId].isPaymentDone==false)\r\n            return false;\r\n        documentId++;\r\n        LandRequestMapping[_requestId].requestStatus=reqStatus.commpleted;\r\n        MyLands[LandRequestMapping[_requestId].buyerId].push(LandRequestMapping[_requestId].landId);\r\n\r\n        uint len=MyLands[LandRequestMapping[_requestId].sellerId].length;\r\n        for(uint i=0;i<len;i++)\r\n        {\r\n            if(MyLands[LandRequestMapping[_requestId].sellerId][i]==LandRequestMapping[_requestId].landId)\r\n            {\r\n                MyLands[LandRequestMapping[_requestId].sellerId][i]=MyLands[LandRequestMapping[_requestId].sellerId][len-1];\r\n                //MyLands[LandRequestMapping[_requestId].sellerId].length--;\r\n                MyLands[LandRequestMapping[_requestId].sellerId].pop();\r\n                break;\r\n            }\r\n        }\r\n        lands[LandRequestMapping[_requestId].landId].document=documentUrl;\r\n        lands[LandRequestMapping[_requestId].landId].isforSell=false;\r\n        lands[LandRequestMapping[_requestId].landId].ownerAddress=LandRequestMapping[_requestId].buyerId;\r\n        return true;\r\n    }\r\n    function makePaymentTestFun(address payable _reveiver) public payable\r\n    {\r\n        _reveiver.transfer(msg.value);\r\n    }\r\n}",
  "sourcePath": "D:\\Rohan\\College\\Major Project\\land_registration\\contracts\\landContrat.sol",
  "compiler": {
    "name": "solc",
    "version": "0.6.12+commit.27d51765.Emscripten.clang"
  },
  "schemaVersion": "3.4.13",
  "updatedAt": "2023-04-22T07:54:37.015Z",
  "networkType": "ethereum",
  "devdoc": {
    "kind": "dev",
    "methods": {},
    "version": 1
  },
  "userdoc": {
    "kind": "user",
    "methods": {},
    "version": 1
  }
}